{
  "contractName": "Vote",
  "abi": [
    {
      "inputs": [],
      "stateMutability": "nonpayable",
      "type": "constructor"
    },
    {
      "inputs": [],
      "name": "winner",
      "outputs": [
        {
          "internalType": "address",
          "name": "",
          "type": "address"
        }
      ],
      "stateMutability": "view",
      "type": "function",
      "constant": true
    },
    {
      "inputs": [
        {
          "internalType": "string",
          "name": "_name",
          "type": "string"
        },
        {
          "internalType": "uint256",
          "name": "_age",
          "type": "uint256"
        },
        {
          "internalType": "string",
          "name": "_gender",
          "type": "string"
        }
      ],
      "name": "voterRegister",
      "outputs": [
        {
          "internalType": "bool",
          "name": "",
          "type": "bool"
        }
      ],
      "stateMutability": "nonpayable",
      "type": "function"
    },
    {
      "inputs": [
        {
          "internalType": "uint256",
          "name": "_voterId",
          "type": "uint256"
        },
        {
          "internalType": "uint256",
          "name": "_id",
          "type": "uint256"
        }
      ],
      "name": "vote",
      "outputs": [],
      "stateMutability": "nonpayable",
      "type": "function"
    },
    {
      "inputs": [
        {
          "internalType": "string",
          "name": "_name",
          "type": "string"
        },
        {
          "internalType": "string",
          "name": "_party",
          "type": "string"
        },
        {
          "internalType": "uint256",
          "name": "_age",
          "type": "uint256"
        },
        {
          "internalType": "string",
          "name": "_gender",
          "type": "string"
        }
      ],
      "name": "candidateRegister",
      "outputs": [],
      "stateMutability": "nonpayable",
      "type": "function"
    },
    {
      "inputs": [],
      "name": "result",
      "outputs": [],
      "stateMutability": "nonpayable",
      "type": "function"
    },
    {
      "inputs": [],
      "name": "candidateList",
      "outputs": [
        {
          "components": [
            {
              "internalType": "string",
              "name": "name",
              "type": "string"
            },
            {
              "internalType": "string",
              "name": "party",
              "type": "string"
            },
            {
              "internalType": "uint256",
              "name": "age",
              "type": "uint256"
            },
            {
              "internalType": "string",
              "name": "gender",
              "type": "string"
            },
            {
              "internalType": "uint256",
              "name": "candidateId",
              "type": "uint256"
            },
            {
              "internalType": "address",
              "name": "candidateAddress",
              "type": "address"
            },
            {
              "internalType": "uint256",
              "name": "votes",
              "type": "uint256"
            }
          ],
          "internalType": "struct Vote.Candidate[]",
          "name": "",
          "type": "tuple[]"
        }
      ],
      "stateMutability": "view",
      "type": "function",
      "constant": true
    },
    {
      "inputs": [],
      "name": "voterList",
      "outputs": [
        {
          "components": [
            {
              "internalType": "string",
              "name": "name",
              "type": "string"
            },
            {
              "internalType": "uint256",
              "name": "age",
              "type": "uint256"
            },
            {
              "internalType": "uint256",
              "name": "voterId",
              "type": "uint256"
            },
            {
              "internalType": "string",
              "name": "gender",
              "type": "string"
            },
            {
              "internalType": "uint256",
              "name": "voteCandidateId",
              "type": "uint256"
            },
            {
              "internalType": "address",
              "name": "voterAddress",
              "type": "address"
            }
          ],
          "internalType": "struct Vote.Voter[]",
          "name": "",
          "type": "tuple[]"
        }
      ],
      "stateMutability": "view",
      "type": "function",
      "constant": true
    },
    {
      "inputs": [
        {
          "internalType": "uint256",
          "name": "_startTime",
          "type": "uint256"
        },
        {
          "internalType": "uint256",
          "name": "_endTime",
          "type": "uint256"
        }
      ],
      "name": "voteTime",
      "outputs": [],
      "stateMutability": "nonpayable",
      "type": "function"
    },
    {
      "inputs": [],
      "name": "votingStatus",
      "outputs": [
        {
          "internalType": "string",
          "name": "",
          "type": "string"
        }
      ],
      "stateMutability": "view",
      "type": "function",
      "constant": true
    },
    {
      "inputs": [],
      "name": "emergency",
      "outputs": [],
      "stateMutability": "nonpayable",
      "type": "function"
    }
  ],
  "bytecode": "0x60806040526001600355600160045534801561001a57600080fd5b50336000806101000a81548173ffffffffffffffffffffffffffffffffffffffff021916908373ffffffffffffffffffffffffffffffffffffffff1602179055506129af8061006a6000396000f3fe608060405234801561001057600080fd5b506004361061009e5760003560e01c806393e5fed21161006657806393e5fed214610123578063b384abef14610153578063caa6fea41461016f578063cf5ce2e714610179578063dfbf53ae146101955761009e565b806319f41a40146100a357806324089918146100c1578063498ea441146100df57806365372147146100fd57806365ca2be314610107575b600080fd5b6100ab6101b3565b6040516100b89190611caf565b60405180910390f35b6100c96102ad565b6040516100d69190611ec7565b60405180910390f35b6100e7610521565b6040516100f49190612055565b60405180910390f35b610105610827565b005b610121600480360381019061011c91906120ad565b610acc565b005b61013d60048036038101906101389190612152565b610b9f565b60405161014a9190612202565b60405180910390f35b61016d600480360381019061016891906120ad565b610ede565b005b6101776110ae565b005b610193600480360381019061018e919061221d565b6110cb565b005b61019d6113a9565b6040516101aa91906122f5565b60405180910390f35b60606000600554036101fc576040518060400160405280600b81526020017f4e6f74205374617274656400000000000000000000000000000000000000000081525090506102aa565b600060055414158015610210575042600654115b801561022f575060001515600960009054906101000a900460ff161515145b15610271576040518060400160405280600b81526020017f496e2070726f677265737300000000000000000000000000000000000000000081525090506102aa565b6040518060400160405280600581526020017f456e64656400000000000000000000000000000000000000000000000000000081525090505b90565b6060600060016003546102c0919061233f565b67ffffffffffffffff8111156102d9576102d8612373565b5b60405190808252806020026020018201604052801561031257816020015b6102ff611a47565b8152602001906001900390816102f75790505b5090506000600190505b60035481101561051957600760008281526020019081526020016000206040518060c0016040529081600082018054610354906123d1565b80601f0160208091040260200160405190810160405280929190818152602001828054610380906123d1565b80156103cd5780601f106103a2576101008083540402835291602001916103cd565b820191906000526020600020905b8154815290600101906020018083116103b057829003601f168201915b5050505050815260200160018201548152602001600282015481526020016003820180546103fa906123d1565b80601f0160208091040260200160405190810160405280929190818152602001828054610426906123d1565b80156104735780601f1061044857610100808354040283529160200191610473565b820191906000526020600020905b81548152906001019060200180831161045657829003601f168201915b50505050508152602001600482015481526020016005820160009054906101000a900473ffffffffffffffffffffffffffffffffffffffff1673ffffffffffffffffffffffffffffffffffffffff1673ffffffffffffffffffffffffffffffffffffffff1681525050826001836104ea919061233f565b815181106104fb576104fa612402565b5b6020026020010181905250808061051190612431565b91505061031c565b508091505090565b606060006001600454610534919061233f565b67ffffffffffffffff81111561054d5761054c612373565b5b60405190808252806020026020018201604052801561058657816020015b610573611a93565b81526020019060019003908161056b5790505b5090506000600190505b60045481101561081f57600860008281526020019081526020016000206040518060e00160405290816000820180546105c8906123d1565b80601f01602080910402602001604051908101604052809291908181526020018280546105f4906123d1565b80156106415780601f1061061657610100808354040283529160200191610641565b820191906000526020600020905b81548152906001019060200180831161062457829003601f168201915b5050505050815260200160018201805461065a906123d1565b80601f0160208091040260200160405190810160405280929190818152602001828054610686906123d1565b80156106d35780601f106106a8576101008083540402835291602001916106d3565b820191906000526020600020905b8154815290600101906020018083116106b657829003601f168201915b50505050508152602001600282015481526020016003820180546106f6906123d1565b80601f0160208091040260200160405190810160405280929190818152602001828054610722906123d1565b801561076f5780601f106107445761010080835404028352916020019161076f565b820191906000526020600020905b81548152906001019060200180831161075257829003601f168201915b50505050508152602001600482015481526020016005820160009054906101000a900473ffffffffffffffffffffffffffffffffffffffff1673ffffffffffffffffffffffffffffffffffffffff1673ffffffffffffffffffffffffffffffffffffffff168152602001600682015481525050826001836107f0919061233f565b8151811061080157610800612402565b5b6020026020010181905250808061081790612431565b915050610590565b508091505090565b60008054906101000a900473ffffffffffffffffffffffffffffffffffffffff1673ffffffffffffffffffffffffffffffffffffffff163373ffffffffffffffffffffffffffffffffffffffff16146108b5576040517f08c379a00000000000000000000000000000000000000000000000000000000081526004016108ac906124eb565b60405180910390fd5b600060016004546108c6919061233f565b67ffffffffffffffff8111156108df576108de612373565b5b60405190808252806020026020018201604052801561091857816020015b610905611a93565b8152602001906001900390816108fd5790505b509050610923610521565b90508060018151811061093957610938612402565b5b602002602001015160c001518160008151811061095957610958612402565b5b602002602001015160c0015111156109d0578060008151811061097f5761097e612402565b5b602002602001015160a00151600160006101000a81548173ffffffffffffffffffffffffffffffffffffffff021916908373ffffffffffffffffffffffffffffffffffffffff160217905550610ac8565b806001815181106109e4576109e3612402565b5b602002602001015160c0015181600081518110610a0457610a03612402565b5b602002602001015160c001511015610a7b5780600181518110610a2a57610a29612402565b5b602002602001015160a00151600160006101000a81548173ffffffffffffffffffffffffffffffffffffffff021916908373ffffffffffffffffffffffffffffffffffffffff160217905550610ac7565b80600181518110610a8f57610a8e612402565b5b602002602001015160c0015181600081518110610aaf57610aae612402565b5b602002602001015160c0015103610ac65750610aca565b5b5b505b565b60008054906101000a900473ffffffffffffffffffffffffffffffffffffffff1673ffffffffffffffffffffffffffffffffffffffff163373ffffffffffffffffffffffffffffffffffffffff1614610b5a576040517f08c379a0000000000000000000000000000000000000000000000000000000008152600401610b519061257d565b60405180910390fd5b8142610b66919061259d565b60058190555080600554610b7a919061259d565b6006819055506000600960006101000a81548160ff0219169083151502179055505050565b6000610baa336113cf565b610be9576040517f08c379a0000000000000000000000000000000000000000000000000000000008152600401610be09061263f565b60405180910390fd5b6012841015610c2d576040517f08c379a0000000000000000000000000000000000000000000000000000000008152600401610c24906126ab565b60405180910390fd5b6040518060c0016040528087878080601f016020809104026020016040519081016040528093929190818152602001838380828437600081840152601f19601f820116905080830192505050505050508152602001858152602001600354815260200184848080601f016020809104026020016040519081016040528093929190818152602001838380828437600081840152601f19601f820116905080830192505050505050508152602001600081526020013373ffffffffffffffffffffffffffffffffffffffff168152506007600060035481526020019081526020016000206000820151816000019080519060200190610d2c929190611ae6565b5060208201518160010155604082015181600201556060820151816003019080519060200190610d5d929190611ae6565b506080820151816004015560a08201518160050160006101000a81548173ffffffffffffffffffffffffffffffffffffffff021916908373ffffffffffffffffffffffffffffffffffffffff160217905550905050600a60076000600354815260200190815260200160002090806001815401808255809150506001900390600052602060002090600602016000909190919091506000820181600001908054610e06906123d1565b610e11929190611b6c565b5060018201548160010155600282015481600201556003820181600301908054610e3a906123d1565b610e45929190611b6c565b50600482015481600401556005820160009054906101000a900473ffffffffffffffffffffffffffffffffffffffff168160050160006101000a81548173ffffffffffffffffffffffffffffffffffffffff021916908373ffffffffffffffffffffffffffffffffffffffff160217905550505060036000815480929190610ecc90612431565b91905055506001905095945050505050565b6000600760008481526020019081526020016000206004015414610f37576040517f08c379a0000000000000000000000000000000000000000000000000000000008152600401610f2e90612717565b60405180910390fd5b3373ffffffffffffffffffffffffffffffffffffffff166007600084815260200190815260200160002060050160009054906101000a900473ffffffffffffffffffffffffffffffffffffffff1673ffffffffffffffffffffffffffffffffffffffff1614610fdb576040517f08c379a0000000000000000000000000000000000000000000000000000000008152600401610fd290612783565b60405180910390fd5b600260045411611020576040517f08c379a0000000000000000000000000000000000000000000000000000000008152600401611017906127ef565b60405180910390fd5b60038110611063576040517f08c379a000000000000000000000000000000000000000000000000000000000815260040161105a9061285b565b60405180910390fd5b8060076000848152602001908152602001600020600401819055506008600082815260200190815260200160002060060160008154809291906110a590612431565b91905055505050565b6001600960006101000a81548160ff021916908315150217905550565b6110d4336116c2565b611113576040517f08c379a000000000000000000000000000000000000000000000000000000000815260040161110a9061263f565b60405180910390fd5b6012831015611157576040517f08c379a000000000000000000000000000000000000000000000000000000000815260040161114e906128ed565b60405180910390fd5b60036004541061119c576040517f08c379a000000000000000000000000000000000000000000000000000000000815260040161119390612959565b60405180910390fd5b6040518060e0016040528088888080601f016020809104026020016040519081016040528093929190818152602001838380828437600081840152601f19601f82011690508083019250505050505050815260200186868080601f016020809104026020016040519081016040528093929190818152602001838380828437600081840152601f19601f82011690508083019250505050505050815260200184815260200183838080601f016020809104026020016040519081016040528093929190818152602001838380828437600081840152601f19601f82011690508083019250505050505050815260200160045481526020013373ffffffffffffffffffffffffffffffffffffffff168152602001600081525060086000600454815260200190815260200160002060008201518160000190805190602001906112e5929190611ae6565b506020820151816001019080519060200190611302929190611ae6565b50604082015181600201556060820151816003019080519060200190611329929190611ae6565b506080820151816004015560a08201518160050160006101000a81548173ffffffffffffffffffffffffffffffffffffffff021916908373ffffffffffffffffffffffffffffffffffffffff16021790555060c082015181600601559050506004600081548092919061139b90612431565b919050555050505050505050565b600160009054906101000a900473ffffffffffffffffffffffffffffffffffffffff1681565b60008060016003546113e1919061233f565b67ffffffffffffffff8111156113fa576113f9612373565b5b60405190808252806020026020018201604052801561143357816020015b611420611a47565b8152602001906001900390816114185790505b5090506000600190505b60035481101561163a57600760008281526020019081526020016000206040518060c0016040529081600082018054611475906123d1565b80601f01602080910402602001604051908101604052809291908181526020018280546114a1906123d1565b80156114ee5780601f106114c3576101008083540402835291602001916114ee565b820191906000526020600020905b8154815290600101906020018083116114d157829003601f168201915b50505050508152602001600182015481526020016002820154815260200160038201805461151b906123d1565b80601f0160208091040260200160405190810160405280929190818152602001828054611547906123d1565b80156115945780601f1061156957610100808354040283529160200191611594565b820191906000526020600020905b81548152906001019060200180831161157757829003601f168201915b50505050508152602001600482015481526020016005820160009054906101000a900473ffffffffffffffffffffffffffffffffffffffff1673ffffffffffffffffffffffffffffffffffffffff1673ffffffffffffffffffffffffffffffffffffffff16815250508260018361160b919061233f565b8151811061161c5761161b612402565b5b6020026020010181905250808061163290612431565b91505061143d565b5060005b81518110156116b6578373ffffffffffffffffffffffffffffffffffffffff1682828151811061167157611670612402565b5b602002602001015160a0015173ffffffffffffffffffffffffffffffffffffffff16036116a3576000925050506116bd565b80806116ae90612431565b91505061163e565b5060019150505b919050565b60008060016004546116d4919061233f565b67ffffffffffffffff8111156116ed576116ec612373565b5b60405190808252806020026020018201604052801561172657816020015b611713611a93565b81526020019060019003908161170b5790505b5090506000600190505b6004548110156119bf57600860008281526020019081526020016000206040518060e0016040529081600082018054611768906123d1565b80601f0160208091040260200160405190810160405280929190818152602001828054611794906123d1565b80156117e15780601f106117b6576101008083540402835291602001916117e1565b820191906000526020600020905b8154815290600101906020018083116117c457829003601f168201915b505050505081526020016001820180546117fa906123d1565b80601f0160208091040260200160405190810160405280929190818152602001828054611826906123d1565b80156118735780601f1061184857610100808354040283529160200191611873565b820191906000526020600020905b81548152906001019060200180831161185657829003601f168201915b5050505050815260200160028201548152602001600382018054611896906123d1565b80601f01602080910402602001604051908101604052809291908181526020018280546118c2906123d1565b801561190f5780601f106118e45761010080835404028352916020019161190f565b820191906000526020600020905b8154815290600101906020018083116118f257829003601f168201915b50505050508152602001600482015481526020016005820160009054906101000a900473ffffffffffffffffffffffffffffffffffffffff1673ffffffffffffffffffffffffffffffffffffffff1673ffffffffffffffffffffffffffffffffffffffff16815260200160068201548152505082600183611990919061233f565b815181106119a1576119a0612402565b5b602002602001018190525080806119b790612431565b915050611730565b5060005b8151811015611a3b578373ffffffffffffffffffffffffffffffffffffffff168282815181106119f6576119f5612402565b5b602002602001015160a0015173ffffffffffffffffffffffffffffffffffffffff1603611a2857600092505050611a42565b8080611a3390612431565b9150506119c3565b5060019150505b919050565b6040518060c001604052806060815260200160008152602001600081526020016060815260200160008152602001600073ffffffffffffffffffffffffffffffffffffffff1681525090565b6040518060e001604052806060815260200160608152602001600081526020016060815260200160008152602001600073ffffffffffffffffffffffffffffffffffffffff168152602001600081525090565b828054611af2906123d1565b90600052602060002090601f016020900481019282611b145760008555611b5b565b82601f10611b2d57805160ff1916838001178555611b5b565b82800160010185558215611b5b579182015b82811115611b5a578251825591602001919060010190611b3f565b5b509050611b689190611bf9565b5090565b828054611b78906123d1565b90600052602060002090601f016020900481019282611b9a5760008555611be8565b82601f10611bab5780548555611be8565b82800160010185558215611be857600052602060002091601f016020900482015b82811115611be7578254825591600101919060010190611bcc565b5b509050611bf59190611bf9565b5090565b5b80821115611c12576000816000905550600101611bfa565b5090565b600081519050919050565b600082825260208201905092915050565b60005b83811015611c50578082015181840152602081019050611c35565b83811115611c5f576000848401525b50505050565b6000601f19601f8301169050919050565b6000611c8182611c16565b611c8b8185611c21565b9350611c9b818560208601611c32565b611ca481611c65565b840191505092915050565b60006020820190508181036000830152611cc98184611c76565b905092915050565b600081519050919050565b600082825260208201905092915050565b6000819050602082019050919050565b600082825260208201905092915050565b6000611d1982611c16565b611d238185611cfd565b9350611d33818560208601611c32565b611d3c81611c65565b840191505092915050565b6000819050919050565b611d5a81611d47565b82525050565b600073ffffffffffffffffffffffffffffffffffffffff82169050919050565b6000611d8b82611d60565b9050919050565b611d9b81611d80565b82525050565b600060c0830160008301518482036000860152611dbe8282611d0e565b9150506020830151611dd36020860182611d51565b506040830151611de66040860182611d51565b5060608301518482036060860152611dfe8282611d0e565b9150506080830151611e136080860182611d51565b5060a0830151611e2660a0860182611d92565b508091505092915050565b6000611e3d8383611da1565b905092915050565b6000602082019050919050565b6000611e5d82611cd1565b611e678185611cdc565b935083602082028501611e7985611ced565b8060005b85811015611eb55784840389528151611e968582611e31565b9450611ea183611e45565b925060208a01995050600181019050611e7d565b50829750879550505050505092915050565b60006020820190508181036000830152611ee18184611e52565b905092915050565b600081519050919050565b600082825260208201905092915050565b6000819050602082019050919050565b600060e0830160008301518482036000860152611f328282611d0e565b91505060208301518482036020860152611f4c8282611d0e565b9150506040830151611f616040860182611d51565b5060608301518482036060860152611f798282611d0e565b9150506080830151611f8e6080860182611d51565b5060a0830151611fa160a0860182611d92565b5060c0830151611fb460c0860182611d51565b508091505092915050565b6000611fcb8383611f15565b905092915050565b6000602082019050919050565b6000611feb82611ee9565b611ff58185611ef4565b93508360208202850161200785611f05565b8060005b8581101561204357848403895281516120248582611fbf565b945061202f83611fd3565b925060208a0199505060018101905061200b565b50829750879550505050505092915050565b6000602082019050818103600083015261206f8184611fe0565b905092915050565b600080fd5b600080fd5b61208a81611d47565b811461209557600080fd5b50565b6000813590506120a781612081565b92915050565b600080604083850312156120c4576120c3612077565b5b60006120d285828601612098565b92505060206120e385828601612098565b9150509250929050565b600080fd5b600080fd5b600080fd5b60008083601f840112612112576121116120ed565b5b8235905067ffffffffffffffff81111561212f5761212e6120f2565b5b60208301915083600182028301111561214b5761214a6120f7565b5b9250929050565b60008060008060006060868803121561216e5761216d612077565b5b600086013567ffffffffffffffff81111561218c5761218b61207c565b5b612198888289016120fc565b955095505060206121ab88828901612098565b935050604086013567ffffffffffffffff8111156121cc576121cb61207c565b5b6121d8888289016120fc565b92509250509295509295909350565b60008115159050919050565b6121fc816121e7565b82525050565b600060208201905061221760008301846121f3565b92915050565b60008060008060008060006080888a03121561223c5761223b612077565b5b600088013567ffffffffffffffff81111561225a5761225961207c565b5b6122668a828b016120fc565b9750975050602088013567ffffffffffffffff8111156122895761228861207c565b5b6122958a828b016120fc565b955095505060406122a88a828b01612098565b935050606088013567ffffffffffffffff8111156122c9576122c861207c565b5b6122d58a828b016120fc565b925092505092959891949750929550565b6122ef81611d80565b82525050565b600060208201905061230a60008301846122e6565b92915050565b7f4e487b7100000000000000000000000000000000000000000000000000000000600052601160045260246000fd5b600061234a82611d47565b915061235583611d47565b92508282101561236857612367612310565b5b828203905092915050565b7f4e487b7100000000000000000000000000000000000000000000000000000000600052604160045260246000fd5b7f4e487b7100000000000000000000000000000000000000000000000000000000600052602260045260246000fd5b600060028204905060018216806123e957607f821691505b6020821081036123fc576123fb6123a2565b5b50919050565b7f4e487b7100000000000000000000000000000000000000000000000000000000600052603260045260246000fd5b600061243c82611d47565b91507fffffffffffffffffffffffffffffffffffffffffffffffffffffffffffffffff820361246e5761246d612310565b5b600182019050919050565b7f596f7520617265206e6f742066726f6d20656c656374696f6e20636f6d6d697360008201527f696f6e0000000000000000000000000000000000000000000000000000000000602082015250565b60006124d5602383611c21565b91506124e082612479565b604082019050919050565b60006020820190508181036000830152612504816124c8565b9050919050565b7f596f7520617265206e6f742066726f6d20456c656374696f6e20436f6d6d697360008201527f696f6e0000000000000000000000000000000000000000000000000000000000602082015250565b6000612567602383611c21565b91506125728261250b565b604082019050919050565b600060208201905081810360008301526125968161255a565b9050919050565b60006125a882611d47565b91506125b383611d47565b9250827fffffffffffffffffffffffffffffffffffffffffffffffffffffffffffffffff038211156125e8576125e7612310565b5b828201905092915050565b7f596f75206861766520616c726561647920726567697374657264000000000000600082015250565b6000612629601a83611c21565b9150612634826125f3565b602082019050919050565b600060208201905081810360008301526126588161261c565b9050919050565b7f596f7520617265206e6f7420656c696769626c6520746f20766f746500000000600082015250565b6000612695601c83611c21565b91506126a08261265f565b602082019050919050565b600060208201905081810360008301526126c481612688565b9050919050565b7f596f75206861766520616c726561647920766f74656400000000000000000000600082015250565b6000612701601683611c21565b915061270c826126cb565b602082019050919050565b60006020820190508181036000830152612730816126f4565b9050919050565b7f596f7520617265206e6f74206120766f74657200000000000000000000000000600082015250565b600061276d601383611c21565b915061277882612737565b602082019050919050565b6000602082019050818103600083015261279c81612760565b9050919050565b7f546865726520617265206e6f2063616e6469646174657320746f20766f746500600082015250565b60006127d9601f83611c21565b91506127e4826127a3565b602082019050919050565b60006020820190508181036000830152612808816127cc565b9050919050565b7f43616e64696461746520646f6573206e6f742065786973740000000000000000600082015250565b6000612845601883611c21565b91506128508261280f565b602082019050919050565b6000602082019050818103600083015261287481612838565b9050919050565b7f596f7520617265206e6f7420656c696769626c6520746f20626520612063616e60008201527f6469646174650000000000000000000000000000000000000000000000000000602082015250565b60006128d7602683611c21565b91506128e28261287b565b604082019050919050565b60006020820190508181036000830152612906816128ca565b9050919050565b7f526567697374726174696f6e2069732066756c6c000000000000000000000000600082015250565b6000612943601483611c21565b915061294e8261290d565b602082019050919050565b6000602082019050818103600083015261297281612936565b905091905056fea2646970667358221220f41d912d3fa532644f0da2a502a897432669b34046005c3831dfd9d41aa07af764736f6c634300080e0033",
  "immutableReferences": {},
  "source": "// SPDX-License-Identifier: MIT\r\npragma solidity >=0.5.0 <0.9.0;\r\n\r\ncontract Vote {\r\n    address electionCommission;\r\n    address public winner;\r\n    string draw;\r\n    struct Voter {\r\n        string name;\r\n        uint256 age;\r\n        uint256 voterId;\r\n        string gender;\r\n        uint256 voteCandidateId;\r\n        address voterAddress;\r\n    }\r\n\r\n    struct Candidate {\r\n        string name;\r\n        string party;\r\n        uint256 age;\r\n        string gender;\r\n        uint256 candidateId;\r\n        address candidateAddress;\r\n        uint256 votes;\r\n    }\r\n\r\n    uint256 nextVoterId = 1;\r\n    uint256 nextCandidateId = 1;\r\n    uint256 startTime;\r\n    uint256 endTime;\r\n    mapping(uint256 => Voter) voterDetails;\r\n    mapping(uint256 => Candidate) candidateDetails;\r\n    bool stopVoting;\r\n    Voter[] private voteArr;\r\n\r\n    constructor() {\r\n        electionCommission = msg.sender;\r\n    }\r\n\r\n    // modifier isVotingOver() {\r\n    //     require(endTime > block.timestamp || stopVoting, \"Voting is over\");\r\n    //     _;\r\n    // }\r\n\r\n    function voterVerification(address _person) internal view returns (bool) {\r\n        Voter[] memory arr = new Voter[](nextVoterId - 1);\r\n\r\n        for (uint256 i = 1; i < nextVoterId; i++) {\r\n            arr[i - 1] = voterDetails[i];\r\n        }\r\n        for (uint256 i = 0; i < arr.length; i++) {\r\n            if (arr[i].voterAddress == _person) {\r\n                return false;\r\n            }\r\n        }\r\n        return true;\r\n    }\r\n\r\n    function candidateVerification(address _person)\r\n        internal\r\n        view\r\n        returns (bool)\r\n    {\r\n        Candidate[] memory arr = new Candidate[](nextCandidateId - 1);\r\n\r\n        for (uint256 i = 1; i < nextCandidateId; i++) {\r\n            arr[i - 1] = candidateDetails[i];\r\n        }\r\n        for (uint256 i = 0; i < arr.length; i++) {\r\n            if (arr[i].candidateAddress == _person) {\r\n                return false;\r\n            }\r\n        }\r\n        return true;\r\n    }\r\n\r\n    function voterRegister(\r\n        string calldata _name,\r\n        uint256 _age,\r\n        string calldata _gender\r\n    ) external returns (bool) {\r\n        require(voterVerification(msg.sender), \"You have already registerd\");\r\n        require(_age >= 18, \"You are not eligible to vote\");\r\n        voterDetails[nextVoterId] = Voter(\r\n            _name,\r\n            _age,\r\n            nextVoterId,\r\n            _gender,\r\n            0,\r\n            msg.sender\r\n        );\r\n        voteArr.push(voterDetails[nextVoterId]);\r\n        nextVoterId++;\r\n        return true;\r\n    }\r\n\r\n    function vote(uint256 _voterId, uint256 _id) external  {\r\n        require(\r\n            voterDetails[_voterId].voteCandidateId == 0,\r\n            \"You have already voted\"\r\n        );\r\n        require(\r\n            voterDetails[_voterId].voterAddress == msg.sender,\r\n            \"You are not a voter\"\r\n        );\r\n        // require(startTime != 0, \"Voting has not started\");\r\n        require(nextCandidateId > 2, \"There are no candidates to vote\");\r\n        require(_id < 3, \"Candidate does not exist\");\r\n        voterDetails[_voterId].voteCandidateId = _id;\r\n        candidateDetails[_id].votes++;\r\n    }\r\n\r\n    //////////..//modification\r\n    //     function vote(uint256 _voterId, uint256 _id) external isVotingOver {\r\n    //     require(\r\n    //         voterDetails[_voterId].voteCandidateId == 0,\r\n    //         \"You have already voted\"\r\n    //     );\r\n    //     require(\r\n    //         voterDetails[_voterId].voterAddress == msg.sender,\r\n    //         \"You are not a voter\"\r\n    //     );\r\n    //     require(startTime != 0, \"Voting has not started\");\r\n    //     require(nextCandidateId > 2, \"There are no candidates to vote\");\r\n    //     require(_id < 3, \"Candidate does not exist\");\r\n    //     voterDetails[_voterId].voteCandidateId = _id;\r\n    //     candidateDetails[_id].votes++;\r\n    // }\r\n\r\n    function candidateRegister(\r\n        string calldata _name,\r\n        string calldata _party,\r\n        uint256 _age,\r\n        string calldata _gender\r\n    ) external {\r\n        require(\r\n            candidateVerification(msg.sender),\r\n            \"You have already registerd\"\r\n        );\r\n        require(_age >= 18, \"You are not eligible to be a candidate\");\r\n        require(nextCandidateId < 3, \"Registration is full\");\r\n        candidateDetails[nextCandidateId] = Candidate(\r\n            _name,\r\n            _party,\r\n            _age,\r\n            _gender,\r\n            nextCandidateId,\r\n            msg.sender,\r\n            0\r\n        );\r\n        nextCandidateId++;\r\n    }\r\n\r\n    function result() external {\r\n        require(\r\n            msg.sender == electionCommission,\r\n            \"You are not from election commision\"\r\n        );\r\n        //require - for timings\r\n        //require- emergency\r\n        //require- to check whether candidates have registered for this or not\r\n        Candidate[] memory arr = new Candidate[](nextCandidateId - 1);\r\n        arr = candidateList();\r\n\r\n        if (arr[0].votes > arr[1].votes) {\r\n            winner = arr[0].candidateAddress;\r\n        } else if(arr[0].votes < arr[1].votes) {\r\n            winner = arr[1].candidateAddress;\r\n        }\r\n        else if(arr[0].votes == arr[1].votes){\r\n            return;\r\n        }\r\n    }\r\n\r\n    function candidateList() public view returns (Candidate[] memory) {\r\n        Candidate[] memory arr = new Candidate[](nextCandidateId - 1);\r\n\r\n        for (uint256 i = 1; i < nextCandidateId; i++) {\r\n            arr[i - 1] = candidateDetails[i];\r\n        }\r\n        return arr;\r\n    }\r\n\r\n    function voterList() external view returns (Voter[] memory) {\r\n        Voter[] memory arr = new Voter[](nextVoterId - 1);\r\n        for (uint256 i = 1; i < nextVoterId; i++) {\r\n            arr[i - 1] = voterDetails[i];\r\n        }\r\n        return arr;\r\n    }\r\n\r\n    function voteTime(uint256 _startTime, uint256 _endTime) external {\r\n        require(\r\n            msg.sender == electionCommission,\r\n            \"You are not from Election Commision\"\r\n        );\r\n        startTime = block.timestamp + _startTime;\r\n        endTime = startTime + _endTime;\r\n        stopVoting = false;\r\n    }\r\n\r\n    function votingStatus() public view returns (string memory) {\r\n        if (startTime == 0) {\r\n            return \"Not Started\";\r\n        } else if (\r\n            (startTime != 0 && endTime > block.timestamp) && stopVoting == false\r\n        ) {\r\n            return \"In progress\";\r\n        } else {\r\n            return \"Ended\";\r\n        }\r\n    }\r\n\r\n    function emergency() public {\r\n        stopVoting = true;\r\n    }\r\n}\r\n\r\n// Candidate Registration Page\r\n// Candidate Login Page\r\n// Voter Registration Page\r\n// Voter Login Page\r\n",
  "sourcePath": "D:\\voting dapp\\Vstarter\\contracts\\Voting.sol",
  "compiler": {
    "name": "solc",
    "version": "0.8.14+commit.80d49f37.Emscripten.clang"
  },
  "schemaVersion": "3.4.11",
  "updatedAt": "2023-05-18T06:20:22.708Z",
  "networkType": "ethereum",
  "devdoc": {
    "kind": "dev",
    "methods": {},
    "version": 1
  },
  "userdoc": {
    "kind": "user",
    "methods": {},
    "version": 1
  }
}